:100000000C9446000C9465000C9465000C946500FB
:100010000C9465000C9465000C9465000C946500CC
:100020000C9465000C9465000C9465000C946500BC
:100030000C9465000C941E020C9465000C946500F1
:100040000C9465000C9465000C9465000C9465009C
:100050000C9465000C9465000C9465000C9465008C
:100060000C9465000C9465000C9465000C9465007C
:100070000C9465000C9465000C9465000C9465006C
:100080000C9465000C9465000C94650011241FBE4F
:10009000CFEFD0E4DEBFCDBF11E0A0E0B1E0ECE1F6
:1000A000FEE000E00BBF02C007900D92A032B10746
:1000B000D9F721E0A0E2B1E001C01D92AF35B2074F
:1000C000E1F70E946C050C940C070C940000CF9390
:1000D000DF9300D01F92CDB7DEB789836A834B834D
:1000E0008B81882371F08A81282F30E081E090E0B5
:1000F00002C0880F991F2A95E2F7982F8981892BD2
:100100000EC08A81282F30E081E090E002C0880F85
:10011000991F2A95E2F7982F9095898189230F904E
:100120000F900F90DF91CF910895CF93DF9300D080
:10013000CDB7DEB789836A838A81282F30E081E0DA
:1001400090E002C0880F991F2A95E2F7982F8981C5
:1001500089230F900F90DF91CF9108950F931F93F4
:10016000CF93DF93CDB7DEB708E210E040E064E064
:100170008FEF0E946700F8018083000086E290E024
:10018000FC018081809560E00E949500882311F039
:1001900081E3D3C086E290E0FC018081809561E03C
:1001A0000E949500882311F084E3C7C086E290E0A6
:1001B000FC018081809562E00E949500882311F007
:1001C00087E3BBC086E290E0FC018081809563E01C
:1001D0000E949500882311F08AE2AFC008E210E087
:1001E00040E065E08FEF0E946700F8018083000027
:1001F00086E290E0FC018081809560E00E9495009D
:10020000882311F082E399C086E290E0FC018081AE
:10021000809561E00E949500882311F085E38DC0F0
:1002200086E290E0FC018081809562E00E9495006A
:10023000882311F088E381C086E290E0FC01808190
:10024000809563E00E949500882311F080E375C0DB
:1002500008E210E040E066E08FEF0E946700F801DE
:100260008083000086E290E0FC018081809560E060
:100270000E949500882311F083E35FC086E290E03E
:10028000FC018081809561E00E949500882311F037
:1002900086E353C086E290E0FC018081809562E0B5
:1002A0000E949500882311F089E347C086E290E020
:1002B000FC018081809563E00E949500882311F005
:1002C00083E23BC008E210E040E067E08FEF0E946D
:1002D0006700F8018083000086E290E0FC018081E5
:1002E000809560E00E949500882311F081E425C08C
:1002F00086E290E0FC018081809561E00E9495009B
:10030000882311F082E419C086E290E0FC0180812C
:10031000809562E00E949500882311F083E40DC06F
:1003200086E290E0FC018081809563E00E94950068
:10033000882311F084E401C080E0DF91CF911F9108
:100340000F910895CF93DF9300D000D0CDB7DEB7E3
:1003500069837A838B839C8389819A81AB81BC81F9
:100360008093000190930101A0930201B0930301D7
:100370008091000190910101A0910201B0910301CF
:100380008093210190932201A0932301B093240133
:1003900000000F900F900F900F90DF91CF91089574
:1003A000CF93DF93CDB7DEB781E890E02BE0FC017F
:1003B000208388E890E02DE730E0FC013183208342
:1003C0008FE690E022E0FC01208384E890E0FC01CD
:1003D000118210828091000190910101A09102018F
:1003E000B09103018093210190932201A0932301F6
:1003F000B09324018FE590E02FE530E0F9012081F2
:100400002068FC0120830000DF91CF910895CF93F5
:10041000DF93CDB7DEB781E890E0FC0110820000E9
:10042000DF91CF910895CF93DF93CDB7DEB781E011
:10043000809320010000DF91CF9108951F920F92C9
:1004400000905F000F92112400905B000F922F9399
:100450003F934F935F936F937F938F939F93AF934C
:10046000BF93EF93FF93CF93DF93CDB7DEB7809128
:10047000210190912201A0912301B09124010197C3
:10048000A109B1098093210190932201A093230136
:10049000B09324018091210190912201A091230128
:1004A000B0912401892B8A2B8B2B91F40E9413028B
:1004B0008091000190910101A0910201B09103018E
:1004C0008093210190932201A0932301B0932401F2
:1004D0000000DF91CF91FF91EF91BF91AF919F917C
:1004E0008F917F916F915F914F913F912F910F90DD
:1004F00000925B000F9000925F000F901F90189584
:10050000CF93DF93CDB7DEB72C970FB6F894DEBF4D
:100510000FBECDBF6D837E838F83988729873A87EF
:100520004B875C878D819E81AF81B88529853A850F
:100530004B855C85BC01CD010E94EA06DC01CB0144
:1005400089839A83AB83BC8389819A81AB81BC8187
:10055000892B8A2B8B2B29F489859A85AB85BC85C1
:1005600011C089859A85AB85BC858D839E83AF83B9
:10057000B88789819A81AB81BC8189879A87AB874B
:10058000BC87D0CFBC01CD012C960FB6F894DEBF4E
:100590000FBECDBFDF91CF910895CF93DF9300D0F1
:1005A0001F92CDB7DEB789837B836A8389818A30C6
:1005B00031F48A819B81BC018DE00E94CD0280ECE8
:1005C00090E0FC018081882F90E080729927892B30
:1005D000B1F386EC90E02981FC01208380E090E07B
:1005E0000F900F900F90DF91CF910895CF93DF93ED
:1005F00000D01F92CDB7DEB79B838A830E94AE00E6
:1006000089838A819B8182309105E9F1833091054C
:100610002CF4009759F0019791F071C08330910547
:1006200009F45CC0049709F463C069C010923501F5
:100630001092250181E090E09B838A836CC08091B9
:100640002501882F90E08E5E9E4FFC01908189816C
:10065000981721F482E090E09B838A838981882324
:1006600009F454C080912501882F90E08E5E9E4F42
:10067000FC0190818981981709F448C083E090E0DB
:100680009B838A8343C08981882381F080912501DF
:10069000882F90E08E5E9E4FFC0190818981981793
:1006A00029F083E090E09B838A8332C0898188238C
:1006B00079F5809125018F5F8093250181E090E09D
:1006C0009B838A8380912501863010F184E090E03D
:1006D0009B838A8381E0809335011AC089818823B6
:1006E000C9F481E090E09B838A831092250112C0B7
:1006F0001092250181E090E09B838A830CC081E009
:1007000090E09B838A831092350105C0000003C0EE
:10071000000001C0000085E290E020913501FC015D
:1007200020838A819B810F900F900F90DF91CF9152
:100730000895CF93DF9300D0CDB7DEB79A83898336
:1007400089819A818130910551F08230910591F033
:10075000892BA9F481E090E09A83898316C083E213
:1007600090E0FC01808188237CF482E090E09A8311
:1007700089830AC081E090E09A83898306C081E082
:1007800090E09A83898301C0000089819A81813039
:10079000910531F08230910579F0892B79F009C00B
:1007A00083E290E0FC018081882354F010923501AF
:1007B00007C01092350105C0000003C0000001C051
:1007C000000085E290E020913501FC0120838981C1
:1007D0009A810F900F90DF91CF910895CF93DF937F
:1007E00000D0CDB7DEB79A83898389819A81813021
:1007F000910551F08230910591F0892BA9F481E0A7
:1008000090E09A83898316C080E290E0FC018081A9
:1008100088237CF482E090E09A8389830AC081E097
:1008200090E09A83898306C081E090E09A8389836F
:1008300001C0000089819A818130910531F08230B8
:10084000910551F0892B51F004C081E0809338016B
:1008500006C01092380103C0000001C00000898169
:100860009A810F900F90DF91CF910895CF93DF93EE
:1008700000D0CDB7DEB79A83898389819A8182308F
:100880009105E9F1833091052CF4009759F0019717
:10089000A1F0F6C08330910509F470C0049709F403
:1008A000AEC0EEC081E090E09A83898310924F0140
:1008B0001092270110922601FFC0809138018130EB
:1008C00009F0F5C082E090E09A8389838091260147
:1008D000909127010196909327018093260180E44F
:1008E00080934F0182E090E0A0E0B0E08093290186
:1008F00090932A01A0932B01B0932C01D8C0809132
:10090000260190912701843F9140C0F480912601F7
:100910009091270181709927892B19F010924F012E
:1009200003C080E480934F018091260190912701BC
:100930000196909327018093260120C08091260183
:1009400090912701843F9140C8F083E090E09A8322
:10095000898381E090E0909327018093260180E4D1
:1009600080934F0184E090E0A0E0B0E08093290103
:1009700090932A01A0932B01B0932C018091260122
:10098000909127018A3F9105C0F4809126019091B2
:10099000270181709927892B19F010924F0103C00C
:1009A00080E480934F018091260190912701019668
:1009B00090932701809326017CC08091260190911D
:1009C00027018A3F910508F474C084E090E09A837F
:1009D000898381E090E0909327018093260180E451
:1009E00080934F0183E090E0A0E0B0E08093290184
:1009F00090932A01A0932B01B0932C015AC08091AF
:100A00002601909127018D349140C0F480912601F8
:100A10009091270181709927892B19F010924F012D
:100A200003C080E480934F018091260190912701BB
:100A3000019690932701809326013DC08091260165
:100A4000909127018A3F9105B0F181E090E09A836F
:100A5000898381E090E09093270180932601109292
:100A60004F0182E090E0A0E0B0E0809329019093F4
:100A70002A01A0932B01B0932C01109238011BC0C6
:100A800082E090E0A0E0B0E08093290190932A01F9
:100A9000A0932B01B0932C0110924F0110922701CB
:100AA0001092260181E090E09A83898305C00000BE
:100AB00003C0000001C0000085E290E030914F01CA
:100AC00020913501232BFC01208389819A810F908D
:100AD0000F90DF91CF9108950F931F93CF93DF93E2
:100AE000CDB7DEB72C970FB6F894DEBF0FBECDBFE3
:100AF00081E290E0FC01108282E290E02FEFFC01A5
:100B0000208384E290E02FE7FC01208385E290E0DF
:100B100020E8FC01208387E290E020EFFC012083A5
:100B200088E290E02FE0FC0120831092380161E020
:100B300070E080E090E00E94A2010E94D00188E075
:100B4000E8E1F1E0DE01159601900D928A95E1F75A
:100B500084E090E09C838B831092390181E090E0E7
:100B6000A0E0B0E080933A0190933B01A0933C0158
:100B7000B0933D0180913A0190913B01A0913C01DD
:100B8000B0913D0180933E0190933F01A0934001BD
:100B9000B093410186EF92E090934301809342012C
:100BA0001092440181E090E0A0E0B0E08093450124
:100BB00090934601A0934701B0934801809145016D
:100BC00090914601A0914701B0914801809349015D
:100BD00090934A01A0934B01B0934C0189E993E0B3
:100BE00090934E0180934D011092540188EC90E057
:100BF000A0E0B0E08093550190935601A093570177
:100C0000B09358018091290190912A01A0912B0164
:100C1000B0912C018093590190935A01A0935B01EC
:100C2000B0935C018EEE93E090935E0180935D0142
:100C30001092280181E090E0A0E0B0E080932901CB
:100C400090932A01A0932B01B0932C01809129014C
:100C500090912A01A0912B01B0912C0180932D013C
:100C600090932E01A0932F01B093300186E394E07E
:100C700090933201809331011A8219829BC089813D
:100C80009A81880F991F9E012F5F3F4F820F931FFC
:100C90000496FC0180819181FC0125813681478188
:100CA000508589819A81880F991FBE016F5F7F4FA0
:100CB000860F971F0496FC0180819181FC01818140
:100CC0009281A381B481281739074A075B0709F08D
:100CD00045C089819A81880F991F9E012F5F3F4FE0
:100CE000820F931F0496FC010081118189819A81F2
:100CF000880F991F9E012F5F3F4F820F931F04960D
:100D0000FC0180819181FC012185328589819A8154
:100D1000880F991FAE014F5F5F4F840F951F049698
:100D2000FC0180819181FC018081082E000C990BCF
:100D3000F9010995F801808389819A81880F991FAB
:100D40009E012F5F3F4F820F931F0496FC0180810D
:100D50009181FC01158216821782108689819A8101
:100D6000880F991F9E012F5F3F4F820F931F04969C
:100D7000FC012081318189819A81880F991FAE0100
:100D80004F5F5F4F840F951F0496FC018081918116
:100D9000FC0185819681A781B0850196A11DB11DB9
:100DA000F90185839683A783B08789819A8101960B
:100DB0009A83898329813A818B819C8128173907FD
:100DC00008F45DCF0000809120018823E1F31092A8
:100DD000200152CFA1E21A2EAA1BBB1BFD010DC0A0
:100DE000AA1FBB1FEE1FFF1FA217B307E407F507DB
:100DF00020F0A21BB30BE40BF50B661F771F881FB7
:100E0000991F1A9469F760957095809590959B014C
:0C0E1000AC01BD01CF010895F894FFCFA4
:100E1C00010000000000000200000000CD020000F4
:100E2C000000233132333435390144015401280197
:00000001FF
