:100000000C9446000C9465000C9465000C946500FB
:100010000C9465000C9465000C9465000C946500CC
:100020000C9465000C9465000C9465000C946500BC
:100030000C9465000C9465000C9465000C946500AC
:100040000C9465000C9465000C9465000C9465009C
:100050000C9465000C9465000C9465000C9465008C
:100060000C9465000C9465000C9465000C9465007C
:100070000C9465000C9465000C9465000C9465006C
:100080000C9465000C9465000C94650011241FBE4F
:10009000CFEFD0E4DEBFCDBF11E0A0E0B1E0E6E8F5
:1000A000F3E000E00BBF02C007900D92AE30B10745
:1000B000D9F721E0AEE0B1E001C01D92A031B20756
:1000C000E1F70E9490000C94C1010C940000CF93C2
:1000D000DF9300D00F92CDB7DEB789837B836A832D
:1000E00089818A3031F48A819B81BC018DE00E9434
:1000F000670080EC90E0FC018081882F90E08072A6
:100100009927892BB1F386EC90E02981FC012083AB
:1001100080E090E00F900F900F90DF91CF910895C5
:10012000CF93DF93CDB7DEB781E290E0FC01108280
:1001300082E290E02FEFFC01208384E290E02FEF39
:10014000FC01208385E290E0FC01108287E290E0D0
:100150002FEFFC01208388E290E0FC0110820E94D6
:10016000B200FDCFCF93DF93CDB7DEB780910E0104
:1001700090910F018530910509F4A6C08630910554
:1001800008F0BBC08430910509F486C08530910524
:1001900008F0B3C08330910509F459C0843091054B
:1001A00008F0ABC082309105D1F18330910508F0A1
:1001B000A4C0009719F0019741F09FC081E090E042
:1001C00090930F0180930E019DC080E290E0FC01AE
:1001D0008081882F90E087709927049739F482E016
:1001E00090E090930F0180930E018CC080E290E02C
:1001F000FC018081882F90E08778992780389105CD
:1002000039F485E090E090930F0180930E017AC05D
:1002100081E090E090930F0180930E0173C080E223
:1002200090E0FC018081882F90E0877099270497E7
:1002300039F482E090E090930F0180930E0162C048
:1002400083E090E090930F0180930E015BC080E209
:1002500090E0FC018081882F90E0877099270297B9
:1002600039F484E090E090930F0180930E014AC02E
:1002700080E290E0FC018081882339F483E090E003
:1002800090930F0180930E013DC081E090E0909328
:100290000F0180930E0136C080E290E0FC01808166
:1002A000882F90E087709927029739F484E090E0D6
:1002B00090930F0180930E0125C081E090E0909310
:1002C0000F0180930E011EC080E290E0FC0180814E
:1002D000882F90E0877899278038910539F485E058
:1002E00090E090930F0180930E010CC081E090E0AC
:1002F00090930F0180930E0105C010920F01109290
:100300000E01000080910E0190910F018530910542
:1003100029F18630910538F584309105C9F0853092
:10032000910508F58330910519F184309105D8F4D1
:1003300082309105F9F083309105A8F4009719F007
:100340000197D1F010C085E290E0FC01108215C049
:1003500085E290E021E0FC0120830FC085E290E07F
:10036000FC0110820AC085E290E0FC01108205C009
:10037000000003C0000001C000000000DF91CF9129
:060380000895F894FFCF80
:0E038600000000020000000067000000000000
:00000001FF
