:100000000C9446000C9465000C9465000C946500FB
:100010000C9465000C9465000C9465000C946500CC
:100020000C9465000C9465000C9465000C946500BC
:100030000C9465000C940C010C9465000C94650004
:100040000C9465000C9465000C9465000C9465009C
:100050000C9465000C9465000C9465000C9465008C
:100060000C9465000C9465000C9465000C9465007C
:100070000C9465000C9465000C9465000C9465006C
:100080000C9465000C9465000C94650011241FBE4F
:10009000CFEFD0E4DEBFCDBF11E0A0E0B1E0ECE3F4
:1000A000F7E000E00BBF02C007900D92A231B1074C
:1000B000D9F721E0A2E1B1E001C01D92A332B2075D
:1000C000E1F70E9420030C949C030C940000CF9352
:1000D000DF9300D01F92CDB7DEB789837B836A831D
:1000E00089818A3031F48A819B81BC018DE00E9434
:1000F000670080EC90E0FC018081882F90E08072A6
:100100009927892BB1F386EC90E02981FC012083AB
:1001100080E090E00F900F900F90DF91CF910895C5
:10012000CF93DF9300D000D0CDB7DEB769837A8359
:100130008B839C8389819A81AB81BC8180930E01E2
:1001400090930F01A0931001B093110180910E01C3
:1001500090910F01A0911001B091110180931301B2
:1001600090931401A0931501B093160100000F9015
:100170000F900F900F90DF91CF910895CF93DF9361
:10018000CDB7DEB781E890E02BE0FC01208388E862
:1001900090E02DE730E0FC01318320838FE690E092
:1001A00022E0FC01208384E890E0FC0111821082AF
:1001B00080910E0190910F01A0911001B091110159
:1001C0008093130190931401A0931501B09316012D
:1001D0008FE590E02FE530E0F90120812068FC01F7
:1001E00020830000DF91CF910895CF93DF93CDB7A7
:1001F000DEB781E890E0FC0110820000DF91CF9132
:100200000895CF93DF93CDB7DEB781E080931201DD
:100210000000DF91CF9108951F920F9200905F0030
:100220000F92112400905B000F922F933F934F93F6
:100230005F936F937F938F939F93AF93BF93EF934E
:10024000FF93CF93DF93CDB7DEB7809113019091E9
:100250001401A0911501B09116010197A109B109EE
:100260008093130190931401A0931501B09316018C
:100270008091130190911401A0911501B091160184
:10028000892B8A2B8B2B91F40E94010180910E0106
:1002900090910F01A0911001B09111018093130171
:1002A00090931401A0931501B09316010000DF9103
:1002B000CF91FF91EF91BF91AF919F918F917F91DE
:1002C0006F915F914F913F912F910F9000925B0042
:1002D0000F9000925F000F901F901895CF93DF93BF
:1002E000CDB7DEB780912101909122018130910537
:1002F00081F08130910530F08230910589F00397CB
:10030000B1F01CC081E090E0909322018093210124
:100310001CC082E090E0909322018093210115C0DF
:1003200083E090E090932201809321010EC081E050
:1003300090E0909322018093210107C081E090E03A
:1003400090932201809321010000809121019091DE
:1003500022018130910569F08130910530F08230C1
:10036000910559F0039769F010C081E0809317015F
:100370000FC082E0809317010BC084E080931701C7
:1003800007C081E08093170103C081E080931701CB
:100390000000DF91CF910895CF93DF93CDB7DEB703
:1003A00080911D0190911E0181309105A1F0813055
:1003B000910518F0029741F015C081E090E090930C
:1003C0001E0180931D0115C081E090E090931E01F5
:1003D00080931D010EC082E090E090931E018093F7
:1003E0001D0107C081E090E090931E0180931D01E4
:1003F000000080911D0190911E018130910561F0F6
:100400008130910518F0029721F00AC0109218016E
:100410000AC01092180107C088E08093180103C039
:100420001092180100000000DF91CF910895CF9342
:10043000DF93CDB7DEB780911B0190911C01813015
:10044000910589F08130910538F08230910591F164
:10045000039709F455C07FC081E090E090931C01A0
:1004600080931B0178C080E290E0FC018081882F9E
:1004700090E0809590958F709927019739F482E0EC
:1004800090E090931C0180931B0160C080E290E09B
:10049000FC018081882F90E0809590958F7099273E
:1004A000892B09F053C081E090E090931C01809368
:1004B0001B014CC080E290E0FC018081882F90E01D
:1004C000809590958F709927019739F483E090E09B
:1004D00090931C0180931B013BC080E290E0FC01E3
:1004E0008081882F90E0809590958F709927892B37
:1004F00079F581E090E090931C0180931B0128C066
:1005000080E290E0FC018081882F90E080959095BA
:100510008F709927019739F482E090E090931C0145
:1005200080931B0117C080E290E0FC018081882F3E
:1005300090E0809590958F709927892B59F481E0F0
:1005400090E090931C0180931B0104C0000003C045
:10055000000001C0000080911B0190911C018130BE
:10056000910549F08130910580F08230910531F09C
:10057000039741F00BC010921A0108C080E18093EC
:100580001A0104C010921A0101C000000000DF919E
:10059000CF910895CF93DF93CDB7DEB780911F0140
:1005A00090912001009719F0019741F00EC081E071
:1005B00090E09093200180931F010EC081E090E0B5
:1005C0009093200180931F0107C081E090E09093F9
:1005D000200180931F01000080911F019091200154
:1005E000009719F0019761F016C090911801809161
:1005F0001701982B80911A01892B8093190116C03D
:100600009091170180911801982B80911A01892BE4
:10061000809319010BC09091180180911701982BBC
:1006200080911A01892B80931901000085E290E0E6
:1006300020911901FC0120830000DF91CF910895E2
:10064000CF93DF93CDB7DEB72A970FB6F894DEBF0E
:100650000FBECDBF81E290E0FC01108282E290E00B
:100660002FEFFC01208384E290E02FEFFC01208338
:1006700085E290E0FC01108210922201109221018B
:1006800010921E0110921D0110921C0110921B016C
:100690001092200110921F0162E070E080E090E073
:1006A0000E9490000E94BE008CE291E09F838E83A6
:1006B0008CE291E09A83898388EE93E0998788871A
:1006C00088EE93E09C838B8382E08A8782E08D832F
:1006D00029813A818E819F812817390720F00E9455
:1006E0006E011A8219822B813C8188859985281791
:1006F000390720F00E94CC011C821B829D818A85D3
:10070000981718F00E9417021D820E94CA02898160
:100710009A8101969A8389838B819C8101969C831F
:100720008B838D818F5F8D830000809112018823E0
:0C073000E1F310921201CCCFF894FFCF3F
:10073C000000000200000000670000000000010043
:02074C000000AB
:00000001FF
