:100000000C9446000C9465000C9465000C946500FB
:100010000C9465000C9465000C9465000C946500CC
:100020000C9465000C9465000C9465000C946500BC
:100030000C9465000C94E3000C9465000C9465002E
:100040000C9465000C9465000C9465000C9465009C
:100050000C9465000C9465000C9465000C9465008C
:100060000C9465000C9465000C9465000C9465007C
:100070000C9465000C9465000C9465000C9465006C
:100080000C9465000C9465000C94650011241FBE4F
:10009000CFEFD0E4DEBFCDBF11E0A0E0B1E0E8E1FA
:1000A000F9E000E00BBF02C007900D92A631B10746
:1000B000D9F721E0A6E1B1E001C01D92AA32B20752
:1000C000E1F70E943E040C948A040C940000CF9344
:1000D000DF9300D000D0CDB7DEB769837A838B83FE
:1000E0009C8389819A81AB81BC818093000190932C
:1000F0000101A0930201B09303018091000190914E
:100100000101A0910201B091030180931701909326
:100110001801A0931901B0931A0100000F900F90DD
:100120000F900F90DF91CF910895CF93DF93CDB7CC
:10013000DEB781E890E02BE0FC01208388E890E0C6
:100140002DE730E0FC01318320838FE690E022E050
:10015000FC01208384E890E0FC01118210828091F0
:10016000000190910101A0910201B09103018093DF
:10017000170190931801A0931901B0931A018FE50C
:1001800090E02FE530E0F90120812068FC01208318
:100190000000DF91CF910895CF93DF93CDB7DEB705
:1001A00081E890E0FC0110820000DF91CF9108957A
:1001B000CF93DF93CDB7DEB781E0809316010000C7
:1001C000DF91CF9108951F920F9200905F000F92E0
:1001D000112400905B000F922F933F934F935F93F6
:1001E0006F937F938F939F93AF93BF93EF93FF93FF
:1001F000CF93DF93CDB7DEB78091170190911801AF
:10020000A0911901B0911A010197A109B109809338
:10021000170190931801A0931901B0931A018091CE
:10022000170190911801A0911901B0911A01892B21
:100230008A2B8B2B91F40E94D80080910001909121
:100240000101A0910201B0910301809317019093E5
:100250001801A0931901B0931A010000DF91CF910A
:10026000FF91EF91BF91AF919F918F917F916F918E
:100270005F914F913F912F910F9000925B000F90F3
:1002800000925F000F901F901895CF93DF9300D0DE
:100290001F92CDB7DEB789837B836A8389818A30D9
:1002A00031F48A819B81BC018DE00E94450180EC84
:1002B00090E0FC018081882F90E080729927892B43
:1002C000B1F386EC90E02981FC01208380E090E08E
:1002D0000F900F900F90DF91CF910895CF93DF9300
:1002E000CDB7DEB78AE790E02AE730E0F901208158
:1002F000206EFC0120830000DF91CF910895CF9301
:10030000DF931F92CDB7DEB789838CE790E0298118
:10031000283028F02CE730E0F901208101C0298144
:10032000FC01208310921F0106C0000080911F0174
:100330008F5F80931F0180911F018F30B0F3000009
:100340000F90DF91CF910895CF93DF93CDB7DEB7B4
:100350008091220190912301009719F0019741F0BB
:1003600014C081E090E090932301809322010DC09E
:1003700088E290E020911301FC0120838BE290E061
:1003800020911201FC01208300000000DF91CF9139
:100390000895CF93DF93CDB7DEB788E790E0FC01F7
:1003A0008081918190931C0180931B018091200199
:1003B000909121018130910589F08130910538F0CB
:1003C00082309105C1F1039709F463C092C081E0C6
:1003D00090E090932101809320018BC080911B01BC
:1003E00090911C018330924060F480911D018F5FD9
:1003F00080931D0182E090E0909321018093200181
:1004000078C080911B0190911C018E30924060F069
:1004100080911D018F5F80931D0183E090E0909398
:1004200021018093200165C081E090E0909321013B
:10043000809320015EC080911B0190911C0183304C
:100440009240F0F482E090E09093210180932001AB
:1004500080911D018F5F80931D0190911D018091FE
:100460001401981708F442C010921D0180911301E5
:100470008038E1F180911301880F8093130136C019
:1004800081E090E0909321018093200110921D0162
:100490002DC080911B0190911C018E309240E8F09C
:1004A00083E090E0909321018093200180911D01D1
:1004B0008F5F80931D0190911D0180911401981709
:1004C000B8F080911301813029F080911301869555
:1004D0008093130110921D010BC010921D0181E049
:1004E00090E0909321018093200102C0000001C0A0
:1004F00000000000DF91CF910895CF93DF93CDB737
:10050000DEB788E790E0FC018081918190931C0127
:1005100080931B01809126019091270181309105E4
:1005200089F08130910538F08230910509F46AC074
:100530000397A9F198C081E090E090932701809300
:10054000260191C080911B0190911C018E3F91402A
:1005500060F480911E018F5F80931E0183E090E024
:1005600090932701809326017EC080911B0190917A
:100570001C018930924060F080911E018F5F809352
:100580001E0182E090E090932701809326016BC0CA
:1005900081E090E0909327018093260164C08091D0
:1005A0001B0190911C018E3F914018F583E090E073
:1005B000909327018093260180911E018F5F809385
:1005C0001E0190911E0180911501981708F448C0F2
:1005D00010921E01809112018F3E09F441C080915A
:1005E0001201882F90E0880F991F8160809312017B
:1005F00037C081E090E0909327018093260110920C
:100600001E012EC080911B0190911C0189309240E7
:10061000F0F082E090E09093270180932601809192
:100620001E018F5F80931E0190911E018091150124
:100630009817C0F0809112018E3F31F08091120125
:10064000869580688093120110921E010BC0109253
:100650001E0181E090E0909327018093260102C063
:10066000000001C0000080E00E947F010000DF91D7
:10067000CF910895CF93DF93CDB7DEB788E790E0B1
:10068000FC018081918190931C0180931B018091DA
:10069000280190912901009719F0019741F068C055
:1006A00081E090E0909329018093280161C08091BE
:1006B0001B0190911C01849720F482E08093140127
:1006C00050C080911B0190911C01893C910520F440
:1006D00085E08093140145C080911B0190911C011D
:1006E0008139914020F48AE0809314013AC08091CE
:1006F0001B0190911C018430924020F484E180938E
:1007000014012FC080911B0190911C018E309240EA
:1007100020F484E68093140124C080911B01909101
:100720001C018B38924020F484E18093140119C09D
:1007300080911B0190911C018335934020F48AE045
:10074000809314010EC080911B0190911C01853D86
:10075000934020F485E08093140103C082E08093ED
:10076000140181E090E0909329018093280100001A
:100770000000DF91CF910895CF93DF93CDB7DEB71F
:1007800088E790E0FC018081918190931C01809327
:100790001B018091240190912501009719F0019788
:1007A00041F068C081E090E090932501809324019E
:1007B00061C080911B0190911C01849720F482E01C
:1007C0008093150150C080911B0190911C01893CC0
:1007D000910520F485E08093150145C080911B01AF
:1007E00090911C018139914020F485E0809315019E
:1007F0003AC080911B0190911C018430924020F4FA
:1008000084E1809315012FC080911B0190911C0100
:100810008E30924020F484E68093150124C08091AC
:100820001B0190911C018B38924020F484E180934D
:10083000150119C080911B0190911C0183359340D3
:1008400020F48AE0809315010EC080911B019091E5
:100850001C01853D934020F485E08093150103C081
:1008600082E08093150181E090E0909325018093D0
:10087000240100000000DF91CF910895CF93DF9312
:10088000CDB7DEB787E290E02FEFFC01208388E24E
:1008900090E0FC0110828AE290E02FEFFC012083BF
:1008A0008BE290E0FC01108262E070E080E090E07A
:1008B0000E9467000E9495000E946E011092230121
:1008C0001092220110922101109220011092270112
:1008D00010922601109229011092280110922501F0
:1008E000109224010E943A030E94C9010E94BC0395
:1008F0000E947D020E94A40162E370E080E090E02B
:100900000E9467000000809116018823E1F3109295
:080910001601E8CFF894FFCFB7
:100918000100000000000002000000004501000086
:0609280000001E80020227
:00000001FF
