:100000000C9454000C9473000C9473000C947300C3
:100010000C9473000C9473000C9473000C94730094
:100020000C9473000C9473000C9473000C94730084
:100030000C9473000C941A010C9473000C947300CC
:100040000C9473000C9473000C9473000C94730064
:100050000C9473000C9473000C9473000C94730054
:100060000C9473000C9473000C9473000C94730044
:100070000C9473000C9473000C9473000C94730034
:100080000C9473000C9473000C94730096019D0102
:10009000CA01F701240251027D02CA02D202D5022E
:1000A000E802FB021603310311241FBECFEFD0E498
:1000B000DEBFCDBF11E0A0E0B1E0E0E0F7E000E09E
:1000C0000BBF02C007900D92A231B107D9F721E012
:1000D000A2E1B1E001C01D92AB31B207E1F70E948D
:1000E0003F030C947E030C940000CF93DF9300D069
:1000F0001F92CDB7DEB789837B836A8389818A307B
:1001000031F48A819B81BC018DE00E94750080ECF6
:1001100090E0FC018081882F90E080729927892BE4
:10012000B1F386EC90E02981FC01208380E090E02F
:100130000F900F900F90DF91CF910895CF93DF93A1
:1001400000D000D0CDB7DEB769837A838B839C83E0
:1001500089819A81AB81BC8180930E0190930F01BC
:10016000A0931001B093110180910E0190910F01A5
:10017000A0911001B091110180931301909314018B
:10018000A0931501B093160100000F900F900F90EF
:100190000F90DF91CF910895CF93DF93CDB7DEB766
:1001A00081E890E02BE0FC01208388E890E02DE7D7
:1001B00030E0FC01318320838FE690E022E0FC01F7
:1001C000208384E890E0FC011182108280910E016E
:1001D00090910F01A0911001B09111018093130132
:1001E00090931401A0931501B09316018FE590E050
:1001F0002FE530E0F90120812068FC012083000018
:10020000DF91CF910895CF93DF93CDB7DEB781E82B
:1002100090E0FC0110820000DF91CF910895CF9310
:10022000DF93CDB7DEB781E0809312010000DF914C
:10023000CF9108951F920F9200905F000F921124AA
:1002400000905B000F922F933F934F935F936F93B8
:100250007F938F939F93AF93BF93EF93FF93CF932E
:10026000DF93CDB7DEB78091130190911401A09177
:100270001501B09116010197A109B10980931301ED
:1002800090931401A0931501B0931601809113016E
:1002900090911401A0911501B0911601892B8A2B20
:1002A0008B2B91F40E940F0180910E0190910F0110
:1002B000A0911001B091110180931301909314014A
:1002C000A0931501B09316010000DF91CF91FF912B
:1002D000EF91BF91AF919F918F917F916F915F91BE
:1002E0004F913F912F910F9000925B000F900092E1
:1002F0005F000F901F901895CF93DF93CDB7DEB7B7
:100300008091190190911A01CC01A0E0B0E040E089
:1003100050E026E030E0841B950B2817390708F4DD
:1003200023C18A5B9F4FFC010C94750381E090E030
:1003300090931A018093190117C18091180181309F
:1003400039F482E090E090931A018093190101C181
:1003500080911801823039F483E090E090931A0183
:1003600080931901F6C080911801833039F486E03A
:1003700090E090931A0180931901EBC080911801CD
:10038000882309F0E6C081E090E090931A01809301
:100390001901DFC080911801813039F484E090E0C8
:1003A00090931A0180931901D6C080911801823070
:1003B00039F483E090E090931A0180931901CBC047
:1003C00080911801833039F486E090E090931A010F
:1003D00080931901C0C080911801882309F0BBC027
:1003E00081E090E090931A0180931901B4C080914C
:1003F0001801813039F482E090E090931A018093E3
:100400001901ABC080911801823039F485E090E089
:1004100090931A0180931901A0C080911801833034
:1004200039F486E090E090931A018093190195C009
:1004300080911801882309F090C081E090E09093AA
:100440001A018093190189C080911801813039F413
:1004500084E090E090931A018093190180C080910C
:100460001801823039F483E090E090931A01809370
:10047000190175C080911801833039F486E090E04D
:1004800090931A01809319016AC080911801882302
:1004900009F065C081E090E090931A018093190102
:1004A0005EC080911801813039F482E090E0909331
:1004B0001A018093190155C080911801823039F4D6
:1004C00085E090E090931A01809319014AC08091D1
:1004D0001801833039F486E090E090931A018093FC
:1004E00019013FC0809118018823D9F581E090E07F
:1004F00090931A018093190134C0809118018130C2
:1005000039F482E090E090931A01809319012BC096
:1005100080911801823039F483E090E090931A01C1
:100520008093190120C080911801833039F486E04E
:1005300090E090931A018093190115C080911801E1
:10054000882389F481E090E090931A018093190147
:100550000AC0000009C0000007C0000005C000007C
:1005600003C0000001C000008091190190911A01A0
:10057000CC01A0E0B0E040E050E026E030E0841B99
:10058000950B2817390708F476C0835B9F4FFC0151
:100590000C94750385E290E027E0FC012083109223
:1005A000170169C01092170166C01092170185E209
:1005B00090E0FC018081893008F05AC085E290E02B
:1005C00025E230E0F90120812F5FFC01208350C03B
:1005D0001092170185E290E0FC018081882309F4E4
:1005E00049C085E290E025E230E0F9012081215008
:1005F000FC0120833FC085E290E0FC0180818930CE
:1006000078F4809117018A3058F085E290E025E275
:1006100030E0F90120812F5FFC0120831092170147
:10062000809117018F5F8093170125C085E290E0CC
:10063000FC018081882379F0809117018A3058F07D
:1006400085E290E025E230E0F90120812150FC01B3
:10065000208310921701809117018F5F80931701FB
:100660000AC085E290E0FC0110821092170103C0DD
:10067000000001C000000000DF91CF910895CF93EA
:10068000DF93CDB7DEB781E290E0FC01108282E219
:1006900090E02FEFFC01208384E290E02FEFFC013B
:1006A000208385E290E0FC01108264E670E080E047
:1006B00090E00E949E000E94CC0081E090E0909328
:1006C0001A018093190180E290E0FC0180818095FD
:1006D0008370809318010000809112018823E1F358
:1006E000109212010E947C01EECFEE0FFF1F00243A
:1006F000001C0BBE0790F691E02D0994F894FFCFF3
:100700000000000200000000750000000000010071
:020710000000E7
:00000001FF
