:100000000C9446000C9465000C9465000C946500FB
:100010000C9465000C9465000C9465000C946500CC
:100020000C9465000C9465000C9465000C946500BC
:100030000C9465000C94E3000C9465000C9465002E
:100040000C9465000C9465000C9465000C9465009C
:100050000C9465000C9465000C9465000C9465008C
:100060000C9465000C9465000C9465000C9465007C
:100070000C9465000C9465000C9465000C9465006C
:100080000C9465000C9465000C94650011241FBE4F
:10009000CFEFD0E4DEBFCDBF11E0A0E0B1E0E6E9F4
:1000A000F9E000E00BBF02C007900D92AE31B1073E
:1000B000D9F721E0AEE1B1E001C01D92A234B20750
:1000C000E1F70E944B030C94C9040C940000CF93F9
:1000D000DF9300D000D0CDB7DEB769837A838B83FE
:1000E0009C8389819A81AB81BC818093000190932C
:1000F0000101A0930201B09303018091000190914E
:100100000101A0910201B091030180931F0190931E
:100110002001A0932101B093220100000F900F90C5
:100120000F900F90DF91CF910895CF93DF93CDB7CC
:10013000DEB781E890E02BE0FC01208388E890E0C6
:100140002DE730E0FC01318320838FE690E022E050
:10015000FC01208384E890E0FC01118210828091F0
:10016000000190910101A0910201B09103018093DF
:100170001F0190932001A0932101B09322018FE5EC
:1001800090E02FE530E0F90120812068FC01208318
:100190000000DF91CF910895CF93DF93CDB7DEB705
:1001A00081E890E0FC0110820000DF91CF9108957A
:1001B000CF93DF93CDB7DEB781E080931E010000BF
:1001C000DF91CF9108951F920F9200905F000F92E0
:1001D000112400905B000F922F933F934F935F93F6
:1001E0006F937F938F939F93AF93BF93EF93FF93FF
:1001F000CF93DF93CDB7DEB780911F01909120019F
:10020000A0912101B09122010197A109B109809328
:100210001F0190932001A0932101B09322018091AE
:100220001F0190912001A0912101B0912201892B01
:100230008A2B8B2B91F40E94D80080910001909121
:100240000101A0910201B091030180931F019093DD
:100250002001A0932101B09322010000DF91CF91F2
:10026000FF91EF91BF91AF919F918F917F916F918E
:100270005F914F913F912F910F9000925B000F90F3
:1002800000925F000F901F901895CF93DF93CDB72A
:10029000DEB72C970FB6F894DEBF0FBECDBF6D83CF
:1002A0007E838F83988729873A874B875C878D81E8
:1002B0009E81AF81B88529853A854B855C85BC01D7
:1002C000CD010E94A704DC01CB0189839A83AB8313
:1002D000BC8389819A81AB81BC81892B8A2B8B2B32
:1002E00029F489859A85AB85BC8511C089859A8555
:1002F000AB85BC858D839E83AF83B88789819A81C6
:10030000AB81BC8189879A87AB87BC87D0CFBC0182
:10031000CD012C960FB6F894DEBF0FBECDBFDF9196
:10032000CF910895CF93DF9300D01F92CDB7DEB762
:1003300089837B836A8389818A3031F48A819B81B6
:10034000BC018DE00E94920180EC90E0FC01808174
:10035000882F90E080729927892BB1F386EC90E08A
:100360002981FC01208380E090E00F900F900F9096
:10037000DF91CF910895CF93DF93CDB7DEB72E975E
:100380000FB6F894DEBF0FBECDBF9E878D878D85DB
:100390009E858230910509F469C0833091052CF463
:1003A000009779F00197A1F12FC18430910509F4EC
:1003B0008EC0843091050CF4CBC0059709F40AC1B6
:1003C00023C180914001882329F081E090E09E873D
:1003D0008D871CC180913C01882329F082E090E048
:1003E0009E878D8713C180914101882329F084E085
:1003F00090E09E878D870AC180913F01882329F074
:1004000083E090E09E878D8701C11E861D86FEC019
:100410008091120118161CF481E080931C018091D8
:100420001C01813019F410921C011BC01A82198220
:1004300012C089819A8101968E5E9E4FFC012081B7
:1004400089819A818E5E9E4FFC01208389819A81E9
:1004500001969A83898389819A81049754F3109233
:10046000160185E090E09E878D87D0C080911601AF
:1004700018161CF481E080931C0180911C018130CE
:1004800019F410921C011EC084E090E09C838B83C1
:1004900012C08B819C8101978E5E9E4FFC01208152
:1004A0008B819C818E5E9E4FFC0120838B819C8181
:1004B00001979C838B838B819C81181619064CF3C2
:1004C0001092120185E090E09E878D879FC01E826A
:1004D0001D8210C08D819E818E5E9E4FFC018081A9
:1004E00088231CF481E080931C018D819E810196FC
:1004F0009E838D838D819E81059764F380911C017D
:10050000813019F410921C011EC018861F8217C07A
:100510008F8198858E5E9E4FFC018081082E000C95
:10052000990B880F991F282F8F8198858E5E9E4F7B
:10053000FC0120838F819885019698878F838F8116
:10054000988505972CF385E090E09E878D875EC0A7
:100550001A86198615C089859A858E5E9E4FFC0184
:100560008081082E000C990B81709927892B19F036
:1005700081E080931C0189859A8501969A878987F5
:1005800089859A8505973CF380911C01813019F487
:1005900010921C011AC01C861B8613C08B859C857B
:1005A0008E5E9E4FFC0180818695282F8B859C85D1
:1005B0008E5E9E4FFC0120838B859C8501969C87D7
:1005C0008B878B859C8505974CF385E090E09E8713
:1005D0008D871CC010921C0180914001882379F402
:1005E00080913C01882359F480914101882339F49A
:1005F00080913F01882319F41E861D8607C085E07F
:1006000090E09E878D8702C01E861D868D859E8503
:100610002E960FB6F894DEBF0FBECDBFDF91CF91FF
:100620000895CF93DF9300D0CDB7DEB79A83898347
:1006300089819A81892B31F588E290E0209123010C
:10064000222F30E02E5E3E4FF9012081FC012083F5
:100650008BE290E020912301222F30E0295E3E4F73
:10066000F9012081FC012083809123018F5F809319
:10067000230180912301853010F0109223011A820A
:10068000198202C01A82198289819A810F900F9073
:10069000DF91CF9108950F931F93CF93DF93CDB741
:1006A000DEB729970FB6F894DEBF0FBECDBF87E245
:1006B00090E02FEFFC01208388E290E0FC011082A3
:1006C0008AE290E02FEFFC0120838BE290E0FC01B6
:1006D000108281E290E0FC01108280E290E02FEF36
:1006E000FC0120838FEF8B8384E291E09F838E83D4
:1006F0008FE291E09987888782E090E09D838C83E8
:100700008B818093240184E690E0A0E0B0E08093A8
:10071000250190932601A0932701B0932801809191
:10072000250190912601A0912701B0912801809385
:10073000290190932A01A0932B01B0932C018BEBFC
:1007400091E090932E0180932D018B8180932F0156
:1007500081E090E0A0E0B0E080933001909331011F
:10076000A0933201B0933301809130019091310117
:10077000A0913201B09133018093340190933501FF
:10078000A0933601B093370181E193E09093390152
:100790008093380161E070E080E090E00E946700A3
:1007A0000E94950080E290E0FC018081882F90E01B
:1007B0008170992721E0892B09F020E0822F809316
:1007C000400180E290E0FC018081809582708093FE
:1007D0003C0180E290E0FC018081809584708093F0
:1007E000410180E290E0FC018081809588708093D7
:1007F0003F011A8219829BC089819A81880F991FB3
:100800009E012F5F3F4F820F931F0596FC01808151
:100810009181FC01258136814781508589819A81AA
:10082000880F991FBE016F5F7F4F860F971F059638
:10083000FC0180819181FC0181819281A381B4813D
:10084000281739074A075B0709F045C089819A8153
:10085000880F991F9E012F5F3F4F820F931F0596B0
:10086000FC010081118189819A81880F991F9E0165
:100870002F5F3F4F820F931F0596FC01808191816E
:10088000FC012185328589819A81880F991FAE01EB
:100890004F5F5F4F840F951F0596FC01808191810A
:1008A000FC018081082E000C990BF9010995F801D3
:1008B000808389819A81880F991F9E012F5F3F4F06
:1008C000820F931F0596FC0180819181FC011582A6
:1008D00016821782108689819A81880F991F9E013E
:1008E0002F5F3F4F820F931F0596FC0120813181BE
:1008F00089819A81880F991FAE014F5F5F4F840FE6
:10090000951F0596FC0180819181FC01858196816E
:10091000A781B0850196A11DB11DF901858396833C
:10092000A783B08789819A8101969A8389832981D7
:100930003A818C819D812817390708F45DCF00002A
:1009400080911E018823E1F310921E012BCFA1E2BA
:100950001A2EAA1BBB1BFD010DC0AA1FBB1FEE1F39
:10096000FF1FA217B307E407F50720F0A21BB30B84
:10097000E40BF50B661F771F881F991F1A9469F700
:1009800060957095809590959B01AC01BD01CF015C
:060990000895F894FFCF6A
:1009960001000000000000020000000092010000BB
:0E09A6000000003C243C00FEFDFBF7EF0100CA
:00000001FF
