:100000000C9446000C9465000C9465000C946500FB
:100010000C9465000C9465000C9465000C946500CC
:100020000C9465000C9465000C9465000C946500BC
:100030000C9465000C940C010C9465000C94650004
:100040000C9465000C9465000C9465000C9465009C
:100050000C9465000C9465000C9465000C9465008C
:100060000C9465000C9465000C9465000C9465007C
:100070000C9465000C9465000C9465000C9465006C
:100080000C9465000C9465000C94650011241FBE4F
:10009000CFEFD0E4DEBFCDBF11E0A0E0B1E0E2EEF3
:1000A000F9E000E00BBF02C007900D92A834B10741
:1000B000D9F721E0A8E4B1E001C01D92A735B2074D
:1000C000E1F70E9420030C94EF040C940000CF93FE
:1000D000DF9300D01F92CDB7DEB789837B836A831D
:1000E00089818A3031F48A819B81BC018DE00E9434
:1000F000670080EC90E0FC018081882F90E08072A6
:100100009927892BB1F386EC90E02981FC012083AB
:1001100080E090E00F900F900F90DF91CF910895C5
:10012000CF93DF9300D000D0CDB7DEB769837A8359
:100130008B839C8389819A81AB81BC8180930E01E2
:1001400090930F01A0931001B093110180910E01C3
:1001500090910F01A0911001B0911101809349017C
:1001600090934A01A0934B01B0934C0100000F9073
:100170000F900F900F90DF91CF910895CF93DF9361
:10018000CDB7DEB781E890E02BE0FC01208388E862
:1001900090E02DE730E0FC01318320838FE690E092
:1001A00022E0FC01208384E890E0FC0111821082AF
:1001B00080910E0190910F01A0911001B091110159
:1001C0008093490190934A01A0934B01B0934C0155
:1001D0008FE590E02FE530E0F90120812068FC01F7
:1001E00020830000DF91CF910895CF93DF93CDB7A7
:1001F000DEB781E890E0FC0110820000DF91CF9132
:100200000895CF93DF93CDB7DEB781E080934801A7
:100210000000DF91CF9108951F920F9200905F0030
:100220000F92112400905B000F922F933F934F93F6
:100230005F936F937F938F939F93AF93BF93EF934E
:10024000FF93CF93DF93CDB7DEB7809149019091B3
:100250004A01A0914B01B0914C010197A109B1094C
:100260008093490190934A01A0934B01B0934C01B4
:100270008091490190914A01A0914B01B0914C01AC
:10028000892B8A2B8B2B91F40E94010180910E0106
:1002900090910F01A0911001B0911101809349013B
:1002A00090934A01A0934B01B0934C010000DF9161
:1002B000CF91FF91EF91BF91AF919F918F917F91DE
:1002C0006F915F914F913F912F910F9000925B0042
:1002D0000F9000925F000F901F9018950F931F933F
:1002E000CF93DF9300D000D0CDB7DEB769837A8398
:1002F0008B839C8380914D0190914E01A0914F0181
:10030000B09150019C01AD0169817A818B819C8102
:100310000E945B03882309F477C020E030E0A90144
:1003200069817A818B819C810E945B03882351F4CF
:1003300081E990E021E930E0F90120812870FC0199
:10034000208309C081E990E021E930E0F9012081B2
:100350002360FC01208328E539E344E75FE36981FA
:100360007A818B819C810E945B03882344F488E915
:1003700090E02FEF3FEFFC013183208334C020E079
:1003800034E244EF56E469817A818B819C810E943A
:100390007D04181634F488E990E0FC011182108283
:1003A00022C008E910E020E030E040E053E4698139
:1003B0007A818B819C810E948204DC01CB019C01AB
:1003C000AD0160E074E284EF9AE40E946003DC0116
:1003D000CB01BC01CD010E94D203DC01CB0101970E
:1003E000F8019183808384E990E0FC0111821082FE
:1003F00089819A81AB81BC8180934D0190934E019C
:10040000A0934F01B093500100000F900F900F90F8
:100410000F90DF91CF911F910F910895CF93DF93AC
:10042000CDB7DEB780E990E020E4FC01208381E9CC
:1004300090E02BE0FC01208360E070E0CB010E94A3
:100440006E010000DF91CF910895CF93DF93CDB778
:10045000DEB780E990E0FC01108281E990E0FC01C8
:1004600010820000DF91CF910895CF93DF93CDB735
:10047000DEB7809153019091540182309105D9F1FA
:100480008330910528F4009759F00197C1F0C8C056
:100490008330910509F43FC0049709F488C0C0C0B7
:1004A00084E090E0909354018093530110925201A4
:1004B00010925601109255010E940E02BDC080910B
:1004C0005101882311F41092520180915601883114
:1004D00060F060E070E0CB010E946E0183E090E08C
:1004E0009093540180935301A7C0809156018F5F70
:1004F00080935601A1C080915101882339F484E092
:1005000090E0909354018093530196C0109254014F
:100510001092530191C0809155018F5F80935501D6
:1005200080915101882311F41092520110925601CA
:10053000809155018B3068F080915201813049F4EF
:1005400082E090E090935401809353011092550102
:1005500073C0809155018B3048F01092550184E0B2
:1005600090E0909354018093530166C080915501AF
:10057000882F90E0880F991F8E5C9E4FFC01808130
:100580009181880F991F880F991F8E5E9E4FFC01E5
:1005900080819181A281B381BC01CD010E946E0155
:1005A00081E090E0909354018093530145C0809185
:1005B0005101813071F580915501882F90E0880FAD
:1005C000991F8E5C9E4FFC0180819181880F991F3D
:1005D000880F991F8E5E9E4FFC0180819181A281C0
:1005E000B381BC01CD010E946E01809155018F5FE6
:1005F00080935501809156018F5F8093560181E071
:1006000090E0909354018093530181E080935201D4
:1006100013C084E090E090935401809353010CC088
:1006200084E090E0909354018093530160E070E087
:10063000CB010E946E0100000000DF91CF91089570
:10064000CF93DF93CDB7DEB781E290E0FC0110825B
:1006500082E290E02FEFFC01208384E290E02FEF14
:10066000FC01208385E290E0FC011082109254018D
:100670001092530169E170E080E090E00E949000E8
:100680000E94BE0080E290E0FC018081882F90E013
:100690008170992721E0892B09F020E0822F809337
:1006A00051010000809148018823E1F31092480134
:1006B0000E943502E7CF0E94080408F481E0089503
:1006C0000E9474030C9443040E943C0458F00E945E
:1006D000350440F029F45F3F29F00C942C045111AB
:1006E0000C9477040C9432040E94540468F3992308
:1006F000B1F3552391F3951B550BBB27AA2762171E
:100700007307840738F09F5F5F4F220F331F441F2A
:10071000AA1FA9F335D00E2E3AF0E0E832D091505E
:100720005040E695001CCAF72BD0FE2F29D0660F4B
:10073000771F881FBB1F261737074807AB07B0E88E
:1007400009F0BB0B802DBF01FF2793585F4F3AF094
:100750009E3F510578F00C942C040C9477045F3F75
:10076000E4F3983ED4F3869577956795B795F7951A
:100770009F5FC9F7880F911D9695879597F9089502
:10078000E1E0660F771F881FBB1F6217730784079E
:10079000BA0720F0621B730B840BBA0BEE1F88F7AD
:1007A000E09508950E94D9036894B1110C947704E0
:1007B00008950E945C0488F09F5798F0B92F9927FC
:1007C000B751B0F0E1F0660F771F881F991F1AF03C
:1007D000BA95C9F714C0B13091F00E947604B1E027
:1007E00008950C947604672F782F8827B85F39F026
:1007F000B93FCCF3869577956795B395D9F73EF4D5
:1008000090958095709561957F4F8F4F9F4F08957C
:10081000990F0008550FAA0BE0E8FEEF1616170611
:10082000E807F907C0F012161306E407F50798F079
:10083000621B730B840B950B39F40A2661F0232B92
:10084000242B252B21F408950A2609F4A140A6950E
:100850008FEF811D811D089597F99F6780E870E0F3
:1008600060E008959FEF80EC089500240A94161626
:10087000170618060906089500240A94121613068E
:10088000140605060895092E0394000C11F488231C
:1008900052F0BB0F40F4BF2B11F460FF04C06F5F38
:1008A0007F4F8F4F9F4F089557FD9058440F551F0E
:1008B00059F05F3F71F04795880F97FB991F61F0E2
:1008C0009F3F79F087950895121613061406551F59
:1008D000F2CF4695F1DF08C0161617061806991FC5
:1008E000F1CF86957105610508940895E894BB27BA
:1008F00066277727CB0197F908950E94080408F42A
:100900008FEF08950E9495040C9443040E943504CF
:1009100038F00E943C0420F0952311F00C942C0434
:100920000C94320411240C9477040E94540470F344
:10093000959FC1F3950F50E0551F629FF001729F84
:10094000BB27F00DB11D639FAA27F00DB11DAA1F93
:10095000649F6627B00DA11D661F829F2227B00DE0
:10096000A11D621F739FB00DA11D621F839FA00D6B
:10097000611D221F749F3327A00D611D231F849FBB
:10098000600D211D822F762F6A2F11249F57504012
:100990009AF0F1F088234AF0EE0FFF1FBB1F661F8D
:1009A000771F881F91505040A9F79E3F510580F056
:1009B0000C942C040C9477045F3FE4F3983ED4F33A
:1009C000869577956795B795F795E7959F5FC1F7FA
:1009D000FE2B880F911D9695879597F90895F894A9
:0209E000FFCF47
:1009E200000000020000000067000000000001009B
:1009F2000000A4D082437BD49243A4D0A443719D2F
:100A0200AE430000C4430000DC43A4F0F64300D030
:100A12000244060007000600040003000700060067
:080A22000500040004000300BC
:00000001FF
