:100000000C9446000C9465000C9465000C946500FB
:100010000C9465000C9465000C9465000C946500CC
:100020000C9465000C9465000C9465000C946500BC
:100030000C9465000C9465000C9465000C946500AC
:100040000C9465000C9465000C9465000C9465009C
:100050000C9465000C9465000C9465000C9465008C
:100060000C9465000C9465000C9465000C9465007C
:100070000C9465000C9465000C9465000C9465006C
:100080000C9465000C9465000C94650011241FBE4F
:10009000CFEFD0E4DEBFCDBF11E0A0E0B1E0E6E6F7
:1000A000F4E000E00BBF02C007900D92AE30B10744
:1000B000D9F721E0AEE0B1E001C01D92A331B20753
:1000C000E1F70E9490000C9431020C940000CF9351
:1000D000DF9300D00F92CDB7DEB789837B836A832D
:1000E00089818A3031F48A819B81BC018DE00E9434
:1000F000670080EC90E0FC018081882F90E08072A6
:100100009927892BB1F386EC90E02981FC012083AB
:1001100080E090E00F900F900F90DF91CF910895C5
:10012000CF93DF93CDB7DEB781E290E0FC01108280
:1001300082E290E02FEFFC01208387E290E02FEF36
:10014000FC01208388E290E0FC01108210921101F2
:100150001092100187E08093120180E290E0FC0190
:100160008081882F90E08170992721E0892B09F008
:1001700020E0822F80930E0180E290E0FC018081DC
:10018000882F90E0809590959595879581708093C4
:100190000F010E94CC00E1CFCF93DF93CDB7DEB744
:1001A00080911001909111018430910509F4B4C03F
:1001B0008530910508F0DEC08330910509F47DC0DB
:1001C0008430910508F0D6C08230910509F445C00D
:1001D0008330910508F0CEC0009719F0019741F0E7
:1001E000C9C081E090E09093110180931001CCC0D0
:1001F00080910E01882359F080910F01882339F4F2
:1002000082E090E0909311018093100125C08091CD
:100210000E01882359F480910F01882339F083E07F
:1002200090E0909311018093100116C080910E010F
:10023000882359F080910F01882339F084E090E001
:10024000909311018093100107C081E090E090939A
:1002500011018093100198C097C080910E018823EE
:1002600059F080910F01882339F482E090E0909357
:1002700011018093100120C080910E01882359F450
:1002800080910F01882339F083E090E09093110171
:100290008093100111C080910E01882309F46FC072
:1002A00080910F01882309F46AC084E090E0909364
:1002B00011018093100163C062C080910E018823F8
:1002C00059F080910F01882339F482E090E09093F7
:1002D0001101809310011FC080910E01882359F4F1
:1002E00080910F01882339F083E090E09093110111
:1002F0008093100110C080910E01882309F441C041
:1003000080910F018823E9F184E090E0909311013E
:100310008093100136C035C080910E01882359F0BA
:1003200080910F01882339F482E090E090931101CD
:10033000809310011EC080910E01882359F4809192
:100340000F01882339F083E090E0909311018093AE
:1003500010010FC080910E018823A9F080910F0138
:10036000882389F084E090E090931101809310013C
:100370000AC009C0109211011092100105C00000BE
:1003800003C0000001C00000809110019091110194
:100390008430910509F455C08530910508F05AC0A4
:1003A00083309105A9F18430910508F053C0823063
:1003B0009105A1F08330910508F04CC0009709F435
:1003C0004BC0019709F046C087E08093120188E294
:1003D00090E020911201FC0120833FC08091120126
:1003E000893050F089E08093120188E290E02091FA
:1003F0001201FC01208331C0809112018F5F809334
:10040000120188E290E020911201FC01208325C0B6
:1004100080911201882349F41092120188E290E041
:1004200020911201FC01208318C08091120181509B
:100430008093120188E290E020911201FC01208358
:100440000CC01092120188E290E020911201FC0190
:10045000208303C0000001C000000000DF91CF91A5
:060460000895F894FFCF9F
:0E04660000000002000000006700000000001F
:00000001FF
